:020000000C945E
:100002006D000C9400000C9400000C9400000C9401
:1000120000000C9400000C9400000C9400000C945E
:1000220000000C9400000C9400000C9400000C944E
:1000320000000C9491010C9400000C9400000C94AC
:1000420000000C9400000C9400000C9400000C942E
:1000520000004E4F460D0A004641494C0D0A004F22
:100062004B3A00454E45580D0A00454E4F4B0D0A7E
:1000720000444E45580D0A0044454C4F4B0D0A00B2
:1000820052454144590D0A0001002D4E414E00498E
:100092004E460000060060025400070066025A0045
:1000A20004006D0261000300710257000600740231
:1000B200540007007A026500070081026C00070005
:1000C2008802730008008F027A00080097028200FB
:1000D2000100B1028A000000F894EE27ECBBF1E0C7
:1000E200FBBFEBBFE5BF8DE0A2E0BB27ED938A9596
:1000F200E9F780E098E0A0E6ED930197E9F7E6E9F9
:10010200F0E085919591009761F0A591B5910590E8
:100112001590BF01F00105900D920197E1F7FB01E7
:10012200F0CFEFE5EDBFE8E0EEBFC0E6D2E00C9421
:10013200C401E0E0E0BDE3E3E9B9E8E9EAB9E6E8F1
:10014200E0BD0895AA935D9BFECFE881ECB9E6C0BD
:10015200BA93AA93A881B981EC91E03031F0ED9184
:10016200A883B983AE2FEEDFF5CF22960895AA9326
:1001720024970E94D70200E010E0E885E03019F4ED
:10018200A0E3E0DF2AC0A885A130C8F0F8010F5F24
:100192001F4FDE011496EA0FFB1FBF01A885BB2784
:1001A200EAE0F0E00E949E02E05DDB01EC93A885AC
:1001B200B0E0EAE0F0E00E949902E887E4CFF801BB
:1001C20031979F0133234AF0DE011496A20FB31F29
:1001D200AC91B8DF21503040F5CF0E94DC02299665
:1001E20008951A93A0E0B0E00E94BA02E53569F0E2
:1001F20010E0103828F4A12F0E944D021F5FF9CFA2
:10020200A0E0B0E0E5E50E94C60219910895CF9BF7
:1002120002C0E1E001C0E0E008951A930A9310E001
:1002220000E0073098F419B2E02FA1E0B0E00E949C
:100232007D02A12DB0E0EA23FB23309729F0E02FC5
:10024200A1E00E9475021E2B0F5FEBCFE12F0991F7
:10025200199108950E94D70230E0D9DFE03021F4ED
:10026200A0E6B2E075DF1BC0D8DF1E2F00E0003829
:1002720048F4A02F0E9454021E1711F431E002C06C
:100282000F5FF5CF303019F4A6E6B2E007C0ADE655
:10029200B2E05EDFA02F6BDFA1E7B2E059DF0E9480
:1002A200DC0224960895AA931A930A93B0DFE030F1
:1002B20019F4A4E7B2E019C0AA81A03810F0EFE760
:1002C200EA83ABDF1E2FAA810E9454020E2F101761
:1002D20019F4AAE7B2E009C0AA81B0E0AF5FBF4F4C
:1002E200E12F0E94C602A1E8B2E032DF1981088143
:1002F20023960895AA93A881A03810F0EFE7E88327
:10030200A8810E945402EF3F19F4A8E8B2E005C0A8
:10031200A8810E944D02AFE8B2E01ADF219608954B
:10032200AA93EA93FA93EFB7EA931A931CB11D309A
:1003320011F01A3079F4A091AF02A13050F0E0919F
:10034200AF02F0E0E156FD4FA0E0A083E1E0E093D0
:10035200B0020FC0A091AF02AF3058F4E091AF02EB
:10036200EF5FE093AF02E150F0E0E156FD4F108302
:1003720003C0E0E0E093AF021991E991EFBFF99178
:10038200E991A9911895E0E0EABBEFEFEBBBD1DE72
:1003920028DFA4E6B0E00E946702A7E9B2E0D8DE57
:1003A2007894E091B002E03051F1E0E0E093B002E5
:1003B200A0919F02A33521F4A091A002A03009F0E0
:1003C20002C048DF1CC0A0919F02A53451F40E94D4
:1003D2005A0220F0EFE7F0E0E883F983A88163DFB7
:1003E2000DC0A0919F02A43451F40E945A0220F041
:1003F200EFE7F0E0E883F983A8817CDF2296D1CF92
:10040200FFCFBA93AA93B981A881EC918A2FAE2F1C
:100412000E944202A82FEE2311F01196F6CFE89423
:10042200EC91ED3211F4689402C0EB3209F41196AA
:1004320066277727EC918A2FAE2F0E943902A82FC8
:10044200EE2379F0FB01660F771F660F771F6E0FA1
:100452007F1F660F771FED91FF27E0536E0F7F1FFF
:10046200E9CFFB011EF4E095F095319622960895AE
:10047200AA93E1E0F991F03310F0FA3308F0EE2795
:100482000895AA93E1E0F991F03229F0F93010F0E1
:10049200FE3008F0EE270895B0E0AF5FBF4FEFEFF8
:1004A2000E94C6020895B0E0AF5FBF4F0E94BA0239
:1004B20008952297A0EAB2E00E940202E883F9833B
:1004C200A881B981A038E0E0BE070895109639F0FE
:1004D20080ED97E00197F1F7A8951197C9F7089574
:1004E200F195E195F0400895EE230E2EEA2F19F0D2
:1004F200EE0F0A94E9F70895EE230E2EFD0121F086
:10050200EE0FFF1F0A94E1F708950024112490E1F1
:10051200AA0FBB1F001C111C0E1A1F0A18F40E0E84
:100522001F1E01C0A1609A9599F7FD01D00108959F
:1005320012D0EBDF0EF4D4DF0895E894B7FF04C0C5
:10054200A095B09511966894F7FDCADFDEDFFD0134
:100552000EF4C6DF0895E894F7FF02C0C1DF689485
:10056200B7FF06C0A095B095119600F8039400FA63
:100572000895E199FECFFF93FFB7F894AEBBBFBBDE
:10058200E09AEDB3FFBFFF910895E19B02C0A895E9
:10059200FCCF9FB7F894AEBBBFBBE09A8DB3E81710
:1005A20019F0EDBBE29AE19A9FBF08953A932A931C
:1005B2001A930A9308953B812A811981088108952B
:00000001FF
